:100000000C94A8240C94D9240C94D9240C94D924AD
:100010000C94D9240C94D9240C94D9240C94D9246C
:100020000C94D9240C94D9240C94D9240C94D9245C
:100030000C94D9240C9450E90C94D9240C94D92410
:100040000C94D9240C94D9240C94D9240C94D9243C
:100050000C94D9240C94D9240C94D9240C94DAED62
:100060000C94D9240C943CE80C9412E80C94D924F8
:100070000C94D9240C94D9240C94D9240C94D9240C
:100080000C94D9240C94D9240C94D9240C94D924FC
:100090000C94DCE70C94B2E70C94D9240D948F26D1
:1000A0000C94D9240C94D9240C94D9240C94D924DC
:1000B0000C94D9240C94D9240C94D9240C94D924CC
:1000C0000C94D9240C94D9240C94D9240C94D924BC
:1000D0000C94D9240C94D9240C94D9240C94D924AC
:1000E0000C94D9240C945EEA0C94703B0C945A51F5
:1000F0000C9433EA0D947E480D94B8270C94AD3DD2
:100100000C94C9CD0C94BBEA0C94A0D90C94E34593
:100110000C9447C20C942CEA0C9414660C9403DBE8
:100120000C947AEA0C9478F70D947E390C943DCCBB
:100130000C94044D0C9438EA0C9423F90C94DF745D
:100140000C94AAC80C941AC10D949E1A0C94B3DA9C
:100150000C9477300C9446630C94A0650D94F31DB9
:100160000C94E2270C94612C0D9414280C94AAC1D1
:100170000D947A1A0C94FEF70D94291A0C94E34C02
:100180000C94F0610C943A5D0C94B1EA0D949115C5
:100190000C94D1750C94C6FA0C9466EA0D94EF2772
:1001A0000D940E1B0C948C340C940B3D0D94E9159E
:1001B0000C949DEA0C94E0460C94DE2D0C94EA839A
:1001C0000C94AF4F0D9444480C942E620C94BE7264
:1001D0000C94F8620C94C65A0C9464750D94A01F8C
:1001E0000C94EB640C946A6E0D941B480C94336E63
:1001F0000D94E9270D942B280C9482750D94791A8F
:100200000C947E360D94B1490D94F9480C948740B6
:100210000C94BDDA0C9409DB0C9488510C94704F4B
:100220000C946E3A0C94E6390D9490270C94235F4D
:100230000C94EF610D94081A0C945F540C945ACCF2
:100240000C94883A0D94E2150C94F1DA0C944DADAF
:100250000D947D150C9493740C94BD470C943275D9
:100260000C94634A0D9463220C94804D0C94433992
:100270000D9431280C94C4620C949F290C947F3DFA
:100280000C94CE460C945ACE0C9495CC0D94CD156E
:100290000C949AF80C94CB3F0C948F4C0C94C1DACC
:1002A0000D94D3270C94CF2E0C9481620C94E7CD3F
:1002B0000C94D3DA0C942F620C94FC710D948A2563
:1002C0000C9480620D94D71A0C94EBDA0D94DF270E
:1002D0000C94F7DA0C941FF80C9484EA0C941EC268
:1002E0000C9404FA0C941F370C94E6310D94CE272D
:1002F0000C94B8FA0D94AC1E0C94F7620D94C5489A
:100300000C9493EA0C94BF4A0C94B1510C94122DA6
:100310000D94A1150D94391A0C943B5D0C94B637CD
:100320000C9456C10C94E2410D9478270D948222CE
:100330000D94E9490D940C280C94B1FA0C944CD905
:100340000C9402640C947E660C94E5DA0D94B81556
:100350000D9479490D94AA150C94BFFA0C94FC6D78
:100360000C943F440C9446330C94DFDA0C948332A3
:100370000C94CDDA0D94C71C0D947B1A0C94BD50CF
:100380000C947E2A0C94D4FA0C9498540C94E9455D
:100390000C94FD2E0C944A3C0C94E6470C94427548
:1003A0000C9446430D94A40A0D94A3270C94B8DA38
:1003B0000D949B250C94453D0D94D4150C947CC252
:1003C0000C94552B0C9442DA0C948CD90C94E82F95
:1003D0000C94A13C0C94B8C80D94A51A0C94035726
:1003E0000C94B32C0D948A1A0C94F7330C94AAFA3B
:1003F0000C9418750C94C4610D9466150C947C379C
:100400000D94DB150C94A5460D94D0270D944D2822
:100410000C9460650D9484150D94CD490C94A8CD71
:100420000C9438C90C9423460C94D7650C94FD5257
:100430000C945E320C94A7EA0C9456EA0C94007566
:100440000C94D9DA0D94CA270C949C2D0D94781A2B
:100450000C94C2F80C94E7380C9418330C94165290
:100460000C9405FA0D9453280C9408540C94FDDA5E
:100470000C9434640C94CB290C94A5640C941A50FD
:100480000D9489480C94F7420C94DBFA0C94C562E5
:100490000C942A840C94494E0C94CA2A0C941D2E58
:1004A0000C94EB2C0C94B9DA0C94D6740C9466640E
:1004B0000C9424340C94403F0C94D8530D9415495B
:1004C0000D94B1150C944CEA0D94F8270C947BD93B
:1004D0000C94E8C10C94C7DA0C9426530C9442EAAD
:1004E0000C94CDFA0C9463380D94BF150C945234CF
:1004F0000C94AFCC0D9498150C94C83A0C948B3393
:100500000C9464360C948D2F0C9445F90C94AED950
:100510000C9404EA0C9445420D94C6150C9482CEBA
:100520000C9410670C9419650C9470EA0C94C561D6
:100530000C94CDC80D9495490C94FB3B0C94D2536C
:100540000C94A9830C94392D0C9481420C94F0D90D
:100550000C94E2FA0C942C4503F0000C4800108433
:1005600000208A00408A004042007C3F0082408098
:1005700084BF00884100783E0007C00003F0000CF3
:100580004800108400208A00408A007C4200823F9C
:10059000008240807CBF00204100183E0007C00060
:1005A00003F0000C4800108400788A00848A0082DE
:1005B0004200823F0044408038BF00204100183E86
:1005C0000007C000000003800EE00FE01CF01EF0EA
:1005D0001EF00C600FE003800000000000003FF000
:1005E000201C38102010385020103FF00000000070
:1005F00000000000200850141FF01FF050142008C5
:100600000000000000000000001000200210022086
:100610000300018004E00E001F00000000001E40E7
:10062000124012701E0000001EF0129012901EF078
:10063000000000001FF020082188224822282120E5
:1006400020901E50003000000000600C1390044009
:1006500009200920092004401390600C00000000CC
:100660000FE01010121001103C9001101210101029
:100670000FE0000000001FF0101017D0101017D06E
:100680001050105010101FF00000005570000000B6
:10069000000000000000000000000000000000005A
:1006A00001446F776E0000000000000000000000B1
:1006B000000000000000024D69640000000000001E
:1006C000000000000000000000000000FF4E6F6E00
:1006D00065000000000000000000000000000000B5
:1006E000000000000000000000000000000000000A
:1006F00000000000000000005265636F72644D69E5
:100700006E696D756D005265636F72644D617869D5
:100710006D756D0053686F774F6E486F6D65004162
:100720006C61726D5468726573686F6C6400004E22
:100730006F6E650000000000000000000000000077
:1007400000000000013E54687265736800000000FC
:1007500000000000000000000000023C54687265C8
:1007600073680000000000000000000000000000AE
:100770000000000000000000000000000000000079
:10078000000000000000416C61726D436F6E64698F
:1007900074696F6E004D756C7469706C6965720078
:1007A000466163746F723130004964656E746966C6
:1007B00069657200556E6974734E616D6500496EAE
:1007C00069744D696E005265736574000044697305
:1007D00061626C6564000000000000000000000021
:1007E000000001436F6D6D6F6E000000000000009F
:1007F000000000000000000002466C696768744D4C
:100800006F646500000000000000000000000000B0
:1008100000000000000000000000000000000000D8
:1008200000000000436F6D6D6F6E5472696D00546F
:1008300072696D5374617465005068617365416ECF
:10084000676C6500004175746F00000000000000D7
:1008500000000000000000000000014669786564A7
:100860000000000000000000000000000000000088
:100870000000000000000000000000000000000078
:1008800000000000000050686173654D6F646500F2
:10089000526576657273654D6F64756C61746F72C5
:1008A000004D6F64756C61746F72537263005065B4
:1008B00072696F643200506572696F64310000566E
:1008C00061726961626C6500000000000000000058
:1008D0000000000001466978656400000000000027
:1008E0000000000000000000000000000000000008
:1008F00000000000000000000000000000000000F8
:10090000506572696F644D6F6465000053696E6570
:1009100000000000000000000000000000000000D7
:100920000001537175617265000000000000000055
:100930000000000000000002547269616E676C657F
:1009400000000000000000000000000000035361F0
:1009500077746F6F746800000000000000000000F2
:100960000000000452616E646F6D00000000000022
:100970000000000000000000000000000000000077
:100980000000000000000000000000000000005710
:10099000617665666F726D00536C6F77446F776E2A
:1009A00000536C6F7755700044656C6179446F77C4
:1009B0006E0044656C6179557000416C6C00547236
:1009C000696D456E61626C656400004E6F6E650016
:1009D0000000000000000000000000000000000017
:1009E00001583E3000000000000000000000000040
:1009F00000000000000002583C3000000000000031
:100A0000000000000000000000000000037C587C93
:100A100000000000000000000000000000000000D6
:100A200000000000000000000000000000000000C6
:100A30000000000000000000437572766556616C8E
:100A4000000044696666000000000000000000002D
:100A500000000000000000014578706F00000000F9
:100A600000000000000000000000000000024675C9
:100A70006E630000000000000000000000000000A5
:100A800000000003437573746F6D000000000000E8
:100A90000000000000000000000000000000000056
:100AA0000000000000000000000000000000004303
:100AB0007572766554797065004F6666736574006B
:100AC00057656967687400496E7075740000416409
:100AD00064000000000000000000000000000000B2
:100AE000000000014D756C7469706C7900000000A5
:100AF000000000000000000000025265706C61639D
:100B0000650000000000000000000000000000037D
:100B1000486F6C640000000000000000000000004E
:100B200000000000000000000000000000000000C5
:100B300000000000000000000000004F70657261BE
:100B400074696F6E004F757470757400536D6F6FBC
:100B50007468005956616C005856616C004E756D92
:100B6000506F696E74730056616C340056616C335B
:100B70000056616C320056616C3100004E6F6E653C
:100B80000000000000000000000000000000000065
:100B90000001413E5800000000000000000000007D
:100BA0000000000000000002413C5800000000006E
:100BB0000000000000000000000000000003413DB4
:100BC0003D58000000000000000000000000000090
:100BD00000000004413E3D580000000000000000FD
:100BE00000000000000000000005413C3D580000EE
:100BF00000000000000000000000000000000006EF
:100C00007C417C3E58000000000000000000000015
:100C10000000000000077C417C3C58000000000000
:100C20000000000000000000000000087C417C3D46
:100C30003D5800000000000000000000000000001F
:100C400000097C417C3E3D5800000000000000008F
:100C5000000000000000000A7C417C3C3D58000080
:100C6000000000000000000000000000000B413EFA
:100C70004200000000000000000000000000000032
:100C80000000000C413C4200000000000000000099
:100C90000000000000000000000D413D3D4200004A
:100CA0000000000000000000000000000000000E36
:100CB000413E3D4200000000000000000000000036
:100CC00000000000000F413C3D4200000000000019
:100CD000000000000000000000000010414E440031
:100CE0000000000000000000000000000000000004
:100CF00000114F5200000000000000000000000042
:100D00000000000000000012584F520000000000D8
:100D100000000000000000000000000000134C6113
:100D20007463680000000000000000000000000084
:100D300000000014546F67676C650000000000003D
:100D40000000000000000000001550756C73650085
:100D50000000000000000000000000000000000093
:100D60000000000000000000000000000000000083
:100D7000000000000046756E630050657273697371
:100D80007456616C0050657273697374656E74009B
:100D9000446F776E00557000446972656374696FC3
:100DA0006E004D6F64756C757300436C6561720005
:100DB00000526973696E67000000000000000000C7
:100DC0000000000000000146616C6C696E67000065
:100DD00000000000000000000000000002447561F7
:100DE0006C00000000000000000000000000000097
:100DF00000000000000000000000000000000000F3
:100E000000000000000000004564676500436C6F4F
:100E1000636B005472616E736974696F6E54696DAF
:100E2000650053776974636800456E64706F696E1E
:100E3000745200456E64706F696E744C009A486F0E
:100E40006C640000000000000000000000000000D2
:100E50000000009B4E6F50756C7365000000000031
:100E60000000000000000000000000000000000082
:100E7000000000000000000000000000000000462C
:100E800061696C73616665004F766572726964654D
:100E900056616C004F766572726964655377697448
:100EA0006368005375627472696D0052657665728D
:100EB000736500FF4E6F6E650000000000000000CB
:100EC0000000000000000000000000000000000022
:100ED00000000000000000000000000000000043CF
:100EE00075727665004E616D650047617567654D89
:100EF00061780047617567654D696E00004E756DDC
:100F000065726963616C0000000000000000000071
:100F100000000147617567650000000000000000E7
:100F200000000000000000000247617567655A6517
:100F3000726F43656E74657200000000000000006F
:100F400000000000000000000000000000000000A1
:100F50000000000044697370000A4175746F00005E
:100F60000000000000000000000000000000000081
:100F70000000000000000000000000000000000071
:100F80000000000000537263000054656C656D65DD
:100F900074727900000000000000000000000001F1
:100FA0004D6978536F75726365730000000000002F
:100FB0000000000000024F7574707574730000002B
:100FC00000000000000000000000000354696D658F
:100FD000727300000000000000000000000000002C
:100FE0000004436F756E74657273000000000000AA
:100FF00000000000000000000000000000000000F1
:1010000000000000000000000000000000547970A3
:1010100065004E6F2E005769646765740043686110
:101020006E6E656C00466C696768744D6F64650030
:10103000436F756E746572004C6F676963616C53C2
:10104000776974636800437573746F6D4375727666
:1010500065004D697865720046756E6367656E0060
:101060005468726F74746C6543757276650050696C
:101070007463684475616C5261746500456C6544C5
:1010800075616C5261746500526F6C6C4475616C73
:10109000526174650041696C4475616C526174659C
:1010A000005961774475616C5261746500527564D2
:1010B0004475616C526174650059325472696D00F7
:1010C00058325472696D0059315472696D0058314B
:1010D0005472696D0054696D65720054656C656D7C
:1010E00065747279005377697463685761726E0032
:1010F000436865636B5468726F74746C6500546800
:101100007253726300506974636853726300456C74
:101110006553726300526F6C6C5372630041696C6B
:10112000537263005961775372630052756453724E
:10113000630000416972706C616E65000000000020
:101140000000000000000000014D756C7469636FC1
:101150007074657200000000000000000000024F83
:1011600074686572000000000000000000000000CC
:10117000000000000000000000000000000000006F
:10118000000000000000000000004D6F64656C541A
:10119000797065004D6F64656C4E616D65004261EC
:1011A00064206D6F64656C20646174612E0A4C6FFD
:1011B0006164696E672064656661756C7473004371
:1011C0006800436F756E7465720054696D657200D6
:1011D00047617567654D61780047617567654D6961
:1011E0006E004469737000004E756D6572696361CD
:1011F0006C000000000000000000000000014761DA
:10120000756765000000000000000000000000009D
:101210000000000247617567655A65726F43656E2D
:101220007465720000000000000000000000000073
:10123000000000000000000000000000000000535B
:101240007263000A4175746F000000000000000026
:10125000000000000000000000000000000000008E
:10126000000000000000000000000000000000542A
:10127000797065000054656C656D65747279000065
:1012800000000000000000000000014D6978536F6D
:10129000757263657300000000000000000000002C
:1012A000024F757470757473000000000000000038
:1012B0000000000000000354696D657273000000B7
:1012C00000000000000000000000000004436F75F3
:1012D0006E746572730000000000000000000000E2
:1012E00000000000000000000000000000000000FE
:1012F0000000000000000000576964676574002367
:10130000202D2D2D2D2D2D20576964676574732098
:101310002D2D2D2D2D2D00456E64706F696E74522C
:1013200000456E64706F696E744C004661696C7341
:10133000616665009A486F6C640000000000000060
:10134000000000000000000000009B4E6F50756C14
:1013500073650000000000000000000000000000B5
:10136000000000000000000000000000000000007D
:101370000000000000004F76657272696465566176
:101380006C004F766572726964655377697463683F
:10139000005375627472696D00526576657273658B
:1013A0000043727600437572766500FF4E6F6E657E
:1013B000000000000000000000000000000000002D
:1013C000000000000000000000000000000000001D
:1013D000000000000000004368616E6E656C002331
:1013E000202D2D2D2D2D2D204F757470757420639B
:1013F00068616E6E656C73202D2D2D2D2D2D005482
:1014000072616E736974696F6E54696D6500232033
:101410002D2D2D2D2D2D20466C69676874206D6F44
:10142000646573202D2D2D2D2D2D00446F776E00BA
:10143000557000446972656374696F6E004D6F6426
:10144000756C757300436C65617200456467650077
:10145000436C6F636B00436F756E7465720023207D
:101460002D2D2D2D2D2D20436F756E7465727320DB
:101470002D2D2D2D2D2D0000526973696E670000F2
:1014800000000000000000000000000000014661B4
:101490006C6C696E67000000000000000000000036
:1014A000000000024475616C0000000000000000B4
:1014B000000000000000000000000000000000002C
:1014C00000000000000000000000000000000056C6
:1014D000616C340056616C330056616C32005661A9
:1014E0006C310046756E6300004E6F6E6500000043
:1014F00000000000000000000000000000000141AA
:101500003E58000000000000000000000000000045
:101510000000000002413C580000000000000000F4
:101520000000000000000000000003413D3D5800A5
:1015300000000000000000000000000000000000AB
:1015400004413E3D58000000000000000000000083
:1015500000000000000005413C3D58000000000074
:10156000000000000000000000000000067C417C3C
:101570003E580000000000000000000000000000D5
:101580000000077C417C3C58000000000000000087
:101590000000000000000000087C417C3D3D580038
:1015A0000000000000000000000000000000097CB6
:1015B000417C3E3D5800000000000000000000009B
:1015C000000000000A7C417C3C3D58000000000007
:1015D000000000000000000000000B413E4200003F
:1015E00000000000000000000000000000000000FB
:1015F0000C413C4200000000000000000000000020
:101600000000000000000D413D3D420000000000D0
:101610000000000000000000000000000E413E3D00
:101620004200000000000000000000000000000078
:1016300000000F413C3D420000000000000000009F
:10164000000000000000000010414E4400000000B7
:101650000000000000000000000000000000114F2A
:101660005200000000000000000000000000000028
:101670000000000012584F5200000000000000005F
:1016800000000000000000000000134C617463685B
:10169000000000000000000000000000000000004A
:1016A00014546F67676C65000000000000000000C4
:1016B0000000000000001550756C7365000000000C
:1016C000000000000000000000000000000000001A
:1016D000000000000000000000000000000000000A
:1016E00000004C6F676963616C53776974636800CD
:1016F00023202D2D2D2D2D2D204C6F676963616CBE
:10170000207377697463686573202D2D2D2D2D2D21
:1017100000437573746F6D43757276650023202DD9
:101720002D2D2D2D2D20437573746F6D20637572D3
:10173000766573202D2D2D2D2D2D00536C6F774444
:101740006F776E00536C6F7755700044656C6179EC
:10175000446F776E0044656C61795570002C0041D0
:101760006C6C00466C696768744D6F6465005472F8
:10177000696D456E61626C65640043727600437505
:1017800072766556616C00004E6F6E650000000059
:101790000000000000000000000000000001583EB2
:1017A0003000000000000000000000000000000009
:1017B00000000002583C3000000000000000000063
:1017C000000000000000000000037C587C000000C6
:1017D0000000000000000000000000000000000009
:1017E00000000000000000000000000000000000F9
:1017F0000000000000437572766554797065000042
:10180000446966660000000000000000000000005F
:101810000000000000014578706F0000000000002B
:1018200000000000000000000000000246756E632A
:1018300000000000000000000000000000000000A8
:101840000003437573746F6D00000000000000001A
:101850000000000000000000000000000000000088
:101860000000000000000000000000000057656953
:1018700067687400496E707574004F7065726174AA
:10188000696F6E0000416464000000000000000009
:1018900000000000000000000000014D756C74693C
:1018A000706C7900000000000000000000000000E3
:1018B000025265706C61636500000000000000006A
:1018C00000000000000003486F6C6400000000008E
:1018D0000000000000000000000000000000000008
:1018E00000000000000000000000000000000000F8
:1018F00000004F7574707574004D6978657200232F
:10190000202D2D2D2D2D2D204D69786572202D2D0A
:101910002D2D2D2D005068617365416E676C65003B
:1019200050686173654D6F646500004175746F00A8
:1019300000000000000000000000000000000000A7
:1019400001466978656400000000000000000000A6
:101950000000000000000000000000000000000087
:1019600000000000000000000000000052657665E5
:101970007273654D6F64756C61746F72004D6F6446
:10198000756C61746F7253726300506572696F6435
:101990003200506572696F643100506572696F641E
:1019A0004D6F646500005661726961626C6500008C
:1019B000000000000000000000000001466978659A
:1019C00064000000000000000000000000000000B3
:1019D0000000000000000000000000000000000007
:1019E0000000000000000057617665666F726D00B0
:1019F0000053696E65000000000000000000000058
:101A00000000000000000153717561726500000064
:101A10000000000000000000000000000254726995
:101A2000616E676C650000000000000000000000AF
:101A3000000003536177746F6F746800000000004A
:101A400000000000000000000452616E646F6D0031
:101A50000000000000000000000000000000000086
:101A60000000000000000000000000000000000076
:101A70000000000046756E6367656E0023202D2D03
:101A80002D2D2D2D2046756E6374696F6E20676550
:101A90006E657261746F7273202D2D2D2D2D2D00AA
:101AA000536D6F6F7468005956616C005856616CC5
:101AB000004E756D506F696E7473005468726F7468
:101AC000746C6543757276650023202D2D2D2D2DA8
:101AD0002D205468726F74746C652063757276651E
:101AE000202D2D2D2D2D2D005069746368447561B6
:101AF0006C5261746500456C654475616C5261742B
:101B00006500526F6C6C4475616C52617465004184
:101B1000696C4475616C52617465005961774475F4
:101B2000616C52617465005275644475616C5261F8
:101B30007465004578706F32004578706F310052DF
:101B4000617465320052617465310023202D2D2DA2
:101B50002D2D2D20526174657320616E642065788F
:101B6000706F202D2D2D2D2D2D0059325472696D41
:101B70000058325472696D0059315472696D0043D6
:101B80006F6D6D6F6E5472696D005472696D537430
:101B9000617465000044697361626C6564000000F3
:101BA0000000000000000000000001436F6D6D6F39
:101BB0006E000000000000000000000000000000B7
:101BC00002466C696768744D6F6465000000000030
:101BD0000000000000000000000000000000000005
:101BE00000000000000000000000000058315472A6
:101BF000696D0023202D2D2D2D2D2D205472696D02
:101C000073202D2D2D2D2D2D005065727369737449
:101C100056616C0050657273697374656E74004927
:101C20006E69744D696E005265736574005377690F
:101C30007463680054696D65720023202D2D2D2D6D
:101C40002D2D2054696D657273202D2D2D2D2D2D78
:101C5000005265636F72644D696E696D756D0052F7
:101C600065636F72644D6178696D756D0053686F5F
:101C7000774F6E486F6D6500416C61726D5468728C
:101C80006573686F6C6400416C61726D436F6E6464
:101C90006974696F6E00004E6F6E65000000000091
:101CA000000000000000000000000000013E546839
:101CB0007265736800000000000000000000000072
:101CC0000000023C54687265736800000000000068
:101CD0000000000000000000000000000000000004
:101CE00000000000000000000000000000004F663F
:101CF00066736574004D756C7469706C696572000B
:101D0000466163746F723130004964656E74696650
:101D100069657200556E6974734E616D65004E6140
:101D20006D65004E6F2E0054656C656D657472793B
:101D30000023202D2D2D2D2D2D2054656C656D65D6
:101D4000747279202D2D2D2D2D2D00005570000041
:101D50000000000000000000000000000000000083
:101D60000001446F776E00000000000000000000DA
:101D700000000000000000024D6964000000000047
:101D800000000000000000000000000000FF4E6F97
:101D90006E65000000000000000000000000000070
:101DA0000000000000000000000000000000000033
:101DB0000000000000000000003A20005377697422
:101DC00063685761726E00436865636B5468726F35
:101DD00074746C650023202D2D2D2D2D2D20576121
:101DE000726E696E6773202D2D2D2D2D2D00546878
:101DF0007253726300506974636853726300456C78
:101E00006553726300526F6C6C5372630041696C6E
:101E10005372630059617753726300527564537251
:101E200063004D6F64656C547970650000416972A0
:101E3000706C616E65000000000000000000000092
:101E40000000014D756C7469636F707465720000F9
:101E50000000000000000000024F7468657200007E
:101E60000000000000000000000000000000000072
:101E70000000000000000000000000000000000062
:101E8000000000004D6F64656C4E616D650023239A
:101E9000232323204D6F64656C20636F6E66696732
:101EA00075726174696F6E2066696C6520232323E7
:101EB000232300456C766F6E5200456C766F6E5230
:101EC00000456C766F6E4C00456C766F6E4C00561C
:101ED0007461696C5200567461696C520056746189
:101EE000696C4C00567461696C4C004D6F746F7274
:101EF00052004D6F746F7252004D6F746F724C00D0
:101F00004D6F746F724C005600457874566F6C7448
:101F100073005600457874566F6C74730056004514
:101F20007874566F6C74730052504D0052504D00CF
:101F300052504D00F8430054656D700052535349A0
:101F4000001B1E392D36274B4EC98DC687D89C786D
:101F50006CB4E493D2B1E17263000204060708098D
:101F6000090A0A0A0A0A0A0A0A2070F84869536329
:101F70006F72653A200053636F72653A202020002B
:101F800047616D65206F76657200A0057C05580578
:101F9000040C06020306040C080808080C040C08CC
:101FA000080C06040C0C04040C08080E03030202BF
:101FB0000604040C080C08080808080C04070103B0
:101FC00002020202020604040602060307040404D5
:101FD0000C080C0C08080808080C06030704040485
:101FE0000C060206040C08080C040404040404048F
:101FF00006030101030202030202020303060602B2
:10200000020604040E0808080C060604060206046C
:1020100047657420726561647900446973636C611B
:10202000696D65723A0A2D2D2D2D2D2D2D2D2D2DFD
:102030002D0A54686973206669726D776172652034
:1020400069732070726F7669646564202261732001
:1020500069732220776974686F7574207761727272
:10206000616E7479206F6620616E79206B696E6491
:102070002C2065787072657373206F7220696D70A3
:102080006C6965642E20496E206E6F206576656EE2
:1020900074207368616C6C20746865206175746865
:1020A0006F7273206F7220636F70797269676874E2
:1020B00020686F6C64657273206265206C69616270
:1020C0006C6520666F7220616E7920646972656349
:1020D000742C20696E6469726563742C20696E6368
:1020E0006964656E74616C2C207370656369616CE2
:1020F0002C206578656D706C617279206F72206339
:102100006F6E73657175656E7469616C2064616D65
:10211000616765732028696E636C7564696E6720FA
:10212000627574206E6F74206C696D6974656420CB
:10213000746F20706572736F6E616C20616E642FB6
:102140006F722070726F70657274792064616D6156
:10215000676529206F72206F74686572206C6961F1
:1021600062696C6974792061726973696E6720664F
:10217000726F6D2074686520757365206F662074BA
:10218000686973206669726D776172652E0A496DA0
:1021900070726F7065726C79206F706572617469AE
:1021A0006E67205243206D6F64656C732063616EAF
:1021B00020636175736520736572696F757320693B
:1021C0006E6A757279206F722064656174682E0082
:1021D000F870200A4657207665723A312E300A2868
:1021E0006329323032322D323032330A42756B3746
:1021F0003435360A0A6769746875622E636F6D2F0D
:1022000062756B37343536004E6F20726573706FB0
:102210006E7365005772697465206661696C6564E8
:102220000057726974652073756363657373005733
:10223000726974696E672073657474696E67730080
:102240005B57726974655D0050574D005365727637
:102250006F004467746C003A0020004368616E6E42
:10226000656C004F757470757420636F6E66696776
:10227000004E6F20726573706F6E736500526561FA
:1022800064696E672073657474696E677300426970
:102290006E642074696D656F75740042696E6420A8
:1022A0006661696C65640042696E6420737563637E
:1022B0006573730042696E64696E67005365636F8E
:1022C0006E646172792072637672004D61696E206E
:1022D00072637672005B436F6E6669677572655DE7
:1022E000005B42696E645D00466163746F727920C1
:1022F0007265736574206861730A6265656E206932
:102300006E697469617465642E0A5265626F6F74D8
:1023100020746F20636F6E74696E7565004661632B
:10232000746F72792072657365742077696C6C0ABA
:1023300064656C65746520616C6C20646174612CEB
:102340000A696E636C7564696E67206D6F64656C95
:10235000732E0A0A5072657373205B55505D0A72C2
:10236000657065617465646C7900300030006D7370
:1023700000467864206C6F6F703A004C6F6F70206D
:10238000233A006279746573004672656520726154
:102390006D3A0055702074696D653A002C2000502C
:1023A0006B7420726174653A005B466163746F728E
:1023B000792052657365745D005B566965772063AB
:1023C000686172207365745D005B44756D70206593
:1023D00078746E6C20454550524F4D5D005B4475DE
:1023E0006D7020696E746E6C20454550524F4D5D86
:1023F000004D617920726564756365207065726651
:102400006F726D6E63004E6F204C434420696E7492
:1024100065726C6163696E670049443A30783330A5
:102420002C205372633A56697274310053696D758A
:102430006C6174652074656C656D657472790053A8
:10244000686F77206C6F6F702074696D65004E2F18
:10245000410044666C74204368206F726465723A70
:10246000004D697865722074656D706C74733A0004
:102470004175746F736C637420696E7075743A0083
:102480005B4368616E67652070617373776F726418
:102490005D005B5365742070617373776F72645D68
:1024A000004C6F636B206D6F64656C73004C6F63E1
:1024B0006B20737461727475700050617373776F01
:1024C0007264005B4E6578745D00290028004D75CC
:1024D0006C74706C723A004761756765206D617845
:1024E0003A004761756765206D696E3A005B4E651D
:1024F00078745D0033504F530032504F53004162A7
:1025000073656E74003A0053776974636820000A3B
:1025100054686573652073657474696E6773206DA4
:10252000696768740A61666665637420796F75729D
:10253000206578697374696E670A6D6F64656C7382
:102540002E0A0A5B4F4B5D20746F20636F6E7469B7
:102550006E7565005B46696E6973685D005B4E650C
:1025600078745D00290028004E2F410025003A00B4
:1025700041646A75737420646561647A6F6E650086
:102580005B4E6578745D004D6F766520737469638A
:102590006B732066756C6C792C0A7468656E2063A9
:1025A000656E746572207468656D2E0A005B4E65F9
:1025B00078745D004E6F6E2063656E746572696E2F
:1025C000670053656C662063656E746572696E673B
:1025D000003A0054797065206F6620617869730055
:1025E0004154524500524541540041455254005215
:1025F000544145004465666C74206D6F64653A0013
:102600005B53746172745D0043616C6962726174E2
:10261000696F6E3A00537469636B730000000000C9
:1026200000000000000000000053776974636865D3
:102630007300000000000000000000000042617410
:1026400074657279000000000000000000000000C6
:102650000053656375726974790000000000000022
:1026600000000000004D697363656C6C616E656FFE
:10267000757300000000000000446562756700008B
:102680000000000000000000000000000041757420
:102690006F68696465207472696D733A00416E6990
:1026A0006D6174696F6E733A00526F756E6420636A
:1026B0006F726E6572733A0044656E736572206D59
:1026C000656E75733A004B656570206D656E75209B
:1026D0007073746E3A004D656E752069636F6E732A
:1026E0003A004B65792066696C7465723A004B65F7
:1026F0007973000000000000416374767479000073
:10270000000057616B652075703A0035730000005A
:1027100000000000003135730000000000000033AD
:10272000307300000000000000316D696E00000091
:10273000000000356D696E00000000000031356D4D
:10274000696E00000000004E6576657200000000B2
:102750000054696D656F75743A00250042726967AF
:1027600068746E6573733A00456E61626C653A0019
:102770004B6579733A004B6E6F62733A005472691D
:102780006D733A0053776974636865733A006D69D5
:102790006E004F666600496E6163747674793A0024
:1027A000456E61626C653A004C6F77000000000076
:1027B00000004D656469756D000000004D61780092
:1027C000000000000000524620706F7765723A00EA
:1027D0005246206F75747075743A005246207365C6
:1027E000747570000000000000000000000000533D
:1027F0006F756E6400000000000000000000000023
:102800000000004261636B6C69676874000000003F
:1028100000000000000000417070656172616E632D
:102820006500000000000000000000416476616E59
:102830006365640000000000000000000000004428
:10284000656C6574652073656E736F723F0A0A5913
:102850006573205B55705D200A4E6F205B446F7777
:102860006E5D005265636F72644D696E3A00526529
:10287000636F72644D61783A004F6E20686F6D65CA
:102880003A005468726573683A003C546872657324
:1028900068003E546872657368004F666600416C5C
:1028A000657274733A004F66667365743A004661E8
:1028B00063746F7231303A0030002E004D756C74C5
:1028C000706C723A00300049443A002D2D00556E6C
:1028D0006974733A002D2D004E616D653A005365A1
:1028E0006E736F72005370656369667920756E69E7
:1028F00074730053656E736F72206E616D65005B5B
:1029000052657365745D004D696E696D756D3A0051
:102910005B52657365745D004D6178696D756D3AE4
:102920000056616C206E6F773A00537461747300C7
:1029300044656C6574652073656E736F72004564E1
:1029400069742073656E736F7200566965772073C2
:102950007461747300525353490054656D7065720D
:1029600061747572650052504D203420426C616470
:1029700065730052504D203320426C6164657300D2
:1029800052504D203220426C61646573004578746A
:10299000566F6C747320345300457874566F6C74A2
:1029A0007320335300457874566F6C747320325320
:1029B0000053656E736F72206E616D650054656DB6
:1029C000706C61746573004E65772073656E736F0C
:1029D00072003A00466164652D696E3A004E2F41DF
:1029E000005377697463683A002D2D004E616D6560
:1029F0003A00464D4400466C676874206D6F64650C
:102A0000206E616D6500462D4D6F646500436F6DEE
:102A10006D6F6E0044697361626C6564002074724E
:102A2000696D3A004D696400446F776E005570001F
:102A30004E6F6E65003A00537769746368200054E6
:102A400068726F74746C653A0052657365742073B4
:102A5000657474696E677300526573657420746978
:102A60006D657200506572736973743A00206D6908
:102A70006E00496E697469616C3A005265736574E1
:102A80003A005377697463683A002D2D004E616DEA
:102A9000653A0054696D65720054696D6572206E07
:102AA000616D6500436C65617220616C6C20636FC1
:102AB000756E7465720A7265676973746572733FC7
:102AC0000A0A596573205B55705D200A4E6F205BC2
:102AD000446F776E5D00436F756E74657200436F6F
:102AE000756E746572206E616D6500436C65617210
:102AF00020616C6C00436C65617220636F756E744D
:102B000065720052657365742073657474696E67CD
:102B1000730052656E616D6520636F756E746572CA
:102B200000436F707920746F00506572736973741D
:102B30003A00436C6561723A00446F776E005570DD
:102B400000446972656374696F6E3A004D6F647515
:102B50006C75733A004475616C0046616C6C696E0B
:102B60006700526973696E6700456467653A0043A0
:102B70006C6F636B3A00436F756E746572003A0058
:102B800046756E6367656E206F757470757473003B
:102B90004667656E00526573657420736574746969
:102BA0006E677300436F707920746F0056696577A4
:102BB000206F7574707574730053796E636564006B
:102BC0005B53796E635D0050686173653A004669D6
:102BD000786564004175746F005068617365206D9D
:102BE0006F64653A00526576657273653A00436FAB
:102BF0006E74726F6C3A004D617820706572696F07
:102C0000643A004D617820696E7472766C3A004DBA
:102C1000696E20706572696F6400506572696F64D7
:102C20003A004D696E20696E7472766C3A00496E96
:102C300074657276616C3A005661726961626C65A6
:102C400000466978656400506572696F64206D6F35
:102C500064653A00496E7472766C206D6F64653AF3
:102C60000053696E650000000000005371756172C9
:102C70006500000000547269616E676C6500005366
:102C80006177746F6F7468000052616E646F6D00DD
:102C900000000057617665666F726D3A004C005215
:102CA000657365742073657474696E677300436F30
:102CB000707920746F00FFF88208BA48AA48BA48B1
:102CC0008208FFF83800FFF88208BA48AA48BA48D4
:102CD0008208FFF800E02D2D0044757261746E3A91
:102CE000002D2D0044656C61793A00436C6561727A
:102CF0003A004475616C0046616C6C696E67005205
:102D00006973696E67002D2D002D2D0056616C755D
:102D100065323A00456467653A0052657365743AF6
:102D200000506572696F643A002D2D0056616C7514
:102D300065313A00436C6F636B3A005365743A0037
:102D400057696474683A002D2D00000000000000EF
:102D500000613E7800000000000000613C78000047
:102D60000000000000613D3D7800000000000061AF
:102D70003E3D78000000000000613C3D780000000E
:102D80000000007C617C3E7800000000007C617CDB
:102D90003C7800000000007C617C3D3D7800000034
:102DA000007C617C3E3D78000000007C617C3C3D05
:102DB0007800000000613E62000000000000006139
:102DC0003C6200000000000000613D3D6200000028
:102DD000000000613E3D62000000000000613C3DDB
:102DE00062000000000000414E44000000000000AE
:102DF000004F520000000000000000584F52000039
:102E000000000000004C6174636800000000005482
:102E10006F67676C650000000050756C736500009B
:102E200000000046756E63746E3A00506F696E74F0
:102E30003A200044656C65746520706F696E74009B
:102E40006265666F72653A00496E736572742070D0
:102E50006F696E74004375727665004375727665AE
:102E6000206E616D65004D696E696D756D207074C1
:102E7000732072656163686564004D6178696D7582
:102E80006D207074732072656163686564004465C9
:102E90006C65746520706F696E7400496E7365723D
:102EA0007420706F696E7400466C6970207665726C
:102EB000746963616C00466C697020686F72697A2E
:102EC0006F6E74616C005265736574206375727601
:102ED000650052656E616D652063757276650043AD
:102EE0006F707920637572766520746F00536D740E
:102EF000683A005976616C3A005876616C3A005035
:102F0000743A0070747300547970653A00437276B5
:102F100000437573746F6D2063757276657300007E
:102F2000000000000046756E63746E2067656E6574
:102F30007261746F72730000004C6F676963616C3B
:102F400020737769746368657300000000436F75D0
:102F50006E74657273000000000000000000000045
:102F60000054696D657273000000000000000000ED
:102F70000000000000536166657479206368656332
:102F80006B73000000000000005472696D207365CF
:102F900074757000000000000000000000466C69BD
:102FA000676874206D6F64657300000000000000A6
:102FB000004368616E6E656C206E616D65005265E0
:102FC0006E616D65206368616E6E656C0056696543
:102FD00077206F75747075747300456E64707473C8
:102FE0003A004E6F50756C736500486F6C64004614
:102FF00061696C736166653A002D2D004F766572CC
:10300000726964653A005375627472696D3A005270
:103010006576657273653A00437276002D2D004324
:10302000757276653A004368004368616E6E656C40
:103030003A00486F6C64003D002A3D002B3D004E75
:103040006F206D6978657320646566696E656420BC
:10305000796574004F76657276696577004D697899
:10306000230056697274004368004D6978657220C8
:103070006F757470757400526573657420616C6C43
:10308000206D697865733F0A0A596573205B557036
:103090005D200A4E6F205B446F776E5D004D69784E
:1030A000206E616D65004F6E65206F72206D6F72CE
:1030B000650A64657374696E6174696F6E20736C00
:1030C0006F74730A616C7265616479206F636375F4
:1030D000706965642E0A436F6E74696E75653F0A88
:1030E0000A596573205B55705D200A4E6F205B4462
:1030F0006F776E5D004469666620746872757374DC
:1031000000567461696C00456C65766F6E004261B3
:1031100073696300496E73657274206661696C65DA
:10312000640054656D706C617465730053686F77EB
:10313000206F7665727669657700436F6D706163A5
:1031400074206D6978657300526573657420616CD5
:103150006C206D69786573005265736574206D69C4
:10316000780052656E616D65206D697800496E73F7
:103170006572742066726565004D6F7665206D69B5
:103180007820746F00436F7079206D697820746FB8
:103190000056696577206F75747075747300536598
:1031A0006C656374206174206C65617374206F6E4C
:1031B00065002000464D4400536C6F77446E3A0022
:1031C000536C6F7755703A00446C7920446E3A0026
:1031D000446C792055703A002C00416C6C00462DEF
:1031E0004D6F64653A004E2F41005472696D202086
:1031F0003A00437276002D2D000000783E3000002A
:10320000783C3000007C787C000043727656616C1C
:103210003A0044696666004578706F0046756E63D3
:10322000004373746D004375727665203A004F66F3
:10323000667365743A005765696768743A00496E49
:10324000707574203A00486F6C640052706C63575C
:10325000004D6C74706C7900416464004F7065724D
:10326000746E3A005377697463683A004F757470EE
:1032700075743A0023004D6978206E6F3A00300073
:10328000313030002D313030003A200053776974EE
:1032900063686573003A004B6E6F6273003A0053C7
:1032A0007469636B7300FE8282828282FEFA868C6E
:1032B000DAF2A2FE536D74683A005976616C3A00F6
:1032C0005876616C3A0050743A007074730043751C
:1032D00072763A005372633A00285261746531295C
:1032E0000028526174653229005372633A002D2D13
:1032F00000442F523A0025004578706F3A002500AF
:10330000526174653A0044656C657465206D6F6444
:10331000656C3F0A0A596573205B55705D200A4E43
:103320006F205B446F776E5D004D6F64656C206449
:103330006174612077696C6C0A62652072657365DF
:10334000742E0A436F6E74696E75653F0A0A59657B
:1033500073205B55705D200A4E6F205B446F776E63
:103360005D004D6F64656C20646174612077696CE9
:103370006C2062650A6F7665727772697474656E27
:103380002E0A436F6E74696E75653F0A0A5965733C
:10339000205B55705D200A4E6F205B446F776E5D39
:1033A000004261636B7570206661696C6564004101
:1033B000206261636B757020776974680A6120739D
:1033C000696D696C6172206E616D650A65786973FB
:1033D00074732E0A4F76657277726974652069740A
:1033E0003F0A0A596573205B55705D200A4E6F20B5
:1033F0005B446F776E5D004D4F44454C00526573E2
:10340000746F7265206661696C6564004D6F6465F8
:103410006C20646174612077696C6C2062650A6F4E
:103420007665727772697474656E2E0A436F6E7476
:10343000696E75653F0A0A596573205B55705D209A
:103440000A4E6F205B446F776E5D00526573746F38
:1034500072652066726F6D205344004E6F206D6F51
:1034600064656C73206F6E20534400436F70792045
:1034700066726F6D004D6F64656C206E616D6500E6
:103480004F74686572004D756C7469636F70746514
:103490007200416972706C616E65004D6F64656C9D
:1034A000207479706500526573746F72652066725E
:1034B0006F6D205344004E6577206D6F64656C001E
:1034C0004261636B757020746F2053440044656CD7
:1034D000657465206D6F64656C004C6F6164206D70
:1034E0006F64656C004E6F206672656520736C6F4B
:1034F000747300526573746F72652066726F6D200D
:103500005344004261636B757020746F2053440014
:103510005265736574206D6F64656C00436F7079DC
:103520002066726F6D004475706C6963617465002C
:1035300052656E616D65206D6F64656C0002048874
:10354000502074065E06480632061C060606F00584
:10355000DA05C4054D6F64656C00000000000000D2
:103560000000000000000000496E707574730000D8
:103570000000000000000000000000004D697865B8
:1035800072000000000000000000000000000000C9
:103590004F75747075747300000000000000000027
:1035A00000000000457874726173000000000000A4
:1035B000000000000000000054656C656D657472C9
:1035C00079000000000000000000000053797374CF
:1035D000656D000000000000000000000000000019
:1035E00052656365697665720000000000000000A6
:1035F0000000000041626F757400000000000000D0
:1036000000000000000000004D61696E206D656ED5
:103610007500576964676574005265736574207737
:103620006964676574004D6F766520746F00436F41
:10363000707920746F00005E005E005E00FFA1FFE5
:10364000A1FFA1FF4D61783A0052696768743A00A2
:103650004D696E3A004C6566743A0043656E746558
:10366000724761756765004761756765004E756DE6
:1036700065726963616C00446973703A002000549C
:10368000696D657200436F756E746572002000434A
:1036900068004175746F6D61746963005372633AB9
:1036A00000436F756E746572730054696D65727353
:1036B000004D697853726373004F7574707574733D
:1036C0000054656C656D6574727900547970653A63
:1036D00000576964676574005769646765747300AF
:1036E00053657475702077696467657473005265FB
:1036F0007365742074696D657220310000000000EC
:10370000000052657365742074696D657220320023
:1037100000000000000052657365742074696D65D7
:1037200072203300000000000000537461727420A6
:1037300074696D6572203100000000000000537450
:103740006172742074696D6572203200000000009F
:10375000000053746172742074696D6572203300C7
:1037600000000000000053746F702074696D657272
:103770002031000000000000000053746F702074BE
:10378000696D657220320000000000000000537473
:103790006F702074696D65722033000000000000B6
:1037A000000020003A004368004F75747075747310
:1037B0000054656C656D6574727920756E6D7574F5
:1037C00065640054656C656D65747279206D7574FF
:1037D0006564003A00436F756E746572003A0020AC
:1037E0006F7574004368003A003A0040D4C8D44072
:1037F00029002800464D440020505050F8D8F810B9
:1038000030D592D530104482BA925410107C3C3E90
:103810005E2B3D3F2F5B5D3B2C2A225C000000208D
:10382000002300260029002C002F00320000010098
:103830000003010601090102000022002500280002
:103840002B002E00310034000201000005010801A8
:103850000B01507265706172696E672073746F72CC
:10386000616765004D6F64656C20646174612069F7
:103870006E0A45787465726E616C20454550524FF2
:103880004D0A706F737369626C7920636F72727521
:1038900070742E0A52657365742069743F0A0A5960
:1038A0006573205B55705D200A4E6F205B446F7717
:1038B0006E5D0045787465726E616C2045455052AE
:1038C0004F4D0A6E6F7420666F726D61747465641B
:1038D0002E0A507265737320616E79206B657900D2
:1038E000507265706172696E672073746F72616780
:1038F0006500507265706172696E672073746F72D3
:10390000616765004D6F64656C2064617461206956
:103910006E0A496E7465726E616C20454550524F57
:103920004D0A706F737369626C7920636F72727580
:1039300070742E0A52657365742069743F0A0A59BF
:103940006573205B55705D200A4E6F205B446F7776
:103950006E5D0053797374656D20646174610A70E3
:103960006F737369626C7920636F72727570742EF5
:103970000A52657365742069743F0A0A5965732099
:103980005B55705D200A4E6F205B446F776E5D0063
:10399000496E7465726E616C20454550524F4D0AF8
:1039A0006E6F7420666F726D61747465642E0A5058
:1039B0007265737320616E79206B65790000002158
:1039C00000240027002A002D0030003300010100F0
:1039D00000040107010A010102102020080810203C
:1039E000401020408002010201080402010102048B
:1039F000081020408080402010080402018004024A
:103A000001804020100804020108040201010204A0
:103A100008102040800102040810204080050505A0
:103A200005070508080808020202020A0A08080435
:103A30000404040101010101010101030303030363
:103A4000030303040707070C0C0C0C0C0C0C0C02F2
:103A500002020206060606060606060B0B0B0B0BF9
:103A60000B0B0B57656C636F6D650000060D13192A
:103A70001F252B30363B4044494D5154585A5D5F09
:103A80006162636464646362615F5D5A5854514D5E
:103A90004944403B36302B251F19130D0600FAF31D
:103AA000EDE7E1DBD5D0CAC5C0BCB7B3AFACA8A6C3
:103AB000A3A19F9E9D9C9C9C9D9E9FA1A3A6A8ACFC
:103AC000AFB3B7BCC0C5CAD0D5DBE1E7EDF3FA05AB
:103AD000000F001E003C002C018403000066616C96
:103AE00073650074727565003A2000202000730031
:103AF0002E0001020702070B070B0E0B0E0D0E0D19
:103B0000080D080408040104010200000A0B020960
:103B10000C0D0E0807030401000000000000000067
:103B20000000000000000000000000000000000095
:103B30000000000000001211100000000000000052
:103B40000000000000000000000000000000000075
:103B50005F446F776E005F4D6964005F5570004E83
:103B60006F6E65007FFFFF80800000408000004096
:103B700080000060800000608000006080000060C5
:103B80008000006080000040800000407FFFFF80D8
:103B90007FFFFF80F8000040F8000040F000006068
:103BA000F0000060F0000060E0000060E0000060F5
:103BB000C0000040C00000407FFFFF807FFFFF800B
:103BC000C0000040C0000040E0000060E000006075
:103BD000F0000060F0000060F0000060F8000040BD
:103BE000F80000407FFFFF80436F756E74657200C0
:103BF00056697274004368004C004667656E005356
:103C000077005275640059617700456C6500506912
:103C10007463680041696C00526F6C6C0054687288
:103C2000004D6178004B6E6F6242004B6E6F6241D7
:103C300000593400583400593300583300593200C9
:103C40005832005931005831004E6F6E65002146E0
:103C50004D4400464D4400214C004C005377002158
:103C60005377002D2D00005EBCE2613FDD83C29CD6
:103C70007E20A3FD1F419DC3217FFCA2401E5F014A
:103C8000E3BD3E6082DC237D9FC1421CFEA0E1BFFC
:103C90005D0380DE3C62BEE0025CDF81633D7C222E
:103CA000C09E1D43A1FF4618FAA427799BC584DA5C
:103CB0003866E5BB5907DB856739BAE4065819470A
:103CC000A5FB7826C49A653BD987045AB8E6A7F9BC
:103CD0001B45C6987A24F8A6441A99C7257B3A64EE
:103CE00086D85B05E7B98CD2306EEDB3510F4E101C
:103CF000F2AC2F7193CD114FADF3702ECC92D38DCA
:103D00006F31B2EC0E50AFF1134DCE90722C6D337B
:103D1000D18F0C52B0EE326C8ED0530DEFB1F0AEAD
:103D20004C1291CF2D73CA947628ABF517490856DB
:103D3000B4EA6937D58B5709EBB536688AD495CB89
:103D40002977F4AA4816E9B7550B88D6346A2B753B
:103D500097C94A14F6A8742AC896154BA9F7B6E86D
:103D60000A54D7896B354261642073797374656D29
:103D700020646174612E0A4C6F6164696E6720640F
:103D8000656661756C747300426164206D6F646573
:103D90006C20646174612E0A4C6F6164696E6720E7
:103DA00064656661756C74730000000000003E5B22
:103DB0004F5B3E3E6B4F6B3E1C3E7C3E1C183C7E78
:103DC0003C181C577D571C1C5E7F5E1C00183C185D
:103DD00000FFE7C3E7FF0018241800FFE7DBE7FF59
:103DE00030483A060E2629792926407F05050740E6
:103DF0007F05253F5A3CE73C5A7F3E1C1C08081CA7
:103E00001C3E7F14227F22145F5F005F5F06097FE4
:103E1000017F006689956A606060606094A2FFA27D
:103E20009404027F020410207F201008082A1C0836
:103E3000081C2A08081E101010100C1E0C1E0C3036
:103E4000383E3830060E3E0E06000000000000002E
:103E50005F00000007000700147F147F14242A6B02
:103E60002A122313086462364955225000000700C5
:103E700000001C2241000041221C0014083E0814CE
:103E800008083E080800005030000808080808002C
:103E90000060600020100804023E5149453E444243
:103EA0007F404042615149462141454B311814122F
:103EB0007F1027454545393C4A494930010179057C
:103EC000033649494936064949291E0000240000A5
:103ED000004034000000081422411414141414414A
:103EE0002214080002015109063E4149550E7E1177
:103EF00011117E7F494949363E414141227F41416E
:103F0000221C7F494949417F090909013E4151511C
:103F1000727F0808087F00417F41002040413F0137
:103F20007F081422417F404040407F020C027F7F87
:103F30000408107F3E4141413E7F090909063E4188
:103F400051215E7F09192946264949493201017FDD
:103F500001013F4040403F1F2040201F7F2018208C
:103F60007F631408146307087008076151494543CB
:103F7000007F41410002040810200041417F0004FD
:103F800002010204808080808080030500002054AC
:103F90005454787F48444438384444442038444496
:103FA000487F3854545458087E09090298A4A4A89C
:103FB0007C7F0804047800447D40004080847D00BC
:103FC0007F20102844003F4040207C041804787C67
:103FD000080404783844444438FC2824241818245D
:103FE0002428FC7C080404084854545424043F4406
:103FF00044203C4040207C1C2040201C3C40304061
:104000003C44281028449CA0A0A07C4464544C4408
:1040100000083E414100007F000041413E0800028F
:10402000010302013C2623263C1EA1A161123A4055
:1040300040207A38545455592155557941225454C9
:104040007842215554784020545579400C1E5272C4
:1040500012395555555939545454593955545458A1
:104060000000457C410002457D420001457C407DC9
:104070001211127DF0282528F07C5455450020545B
:10408000547C547C0A097F4932494949323A4444B4
:10409000443A324A4848303A4141217A3A42402033
:1040A00078009DA0A07D3D4242423D3D4040403DC4
:1040B0003C24FF2424487E4943662B2FFC2F2BFFF2
:1040C0000929F620C0887E09032054547941000054
:1040D000447D413048484A32384040227A007A0ACA
:1040E0000A727D0D19317D2629292F282629292993
:1040F0002630484D402038080808080808080838C5
:104100002F10C8ACBA2F102834FA00007B0000082A
:10411000142A142222142A14085500550055AA55B1
:10412000AA55AAFF55FF55FF000000FF0010101010
:10413000FF00141414FF001010FF00FF1010F01007
:10414000F0141414FC001414F700FF0000FF00FF2B
:104150001414F404FC141417101F10101F101F1453
:1041600014141F00101010F0000000001F10101099
:10417000101F10101010F010000000FF1010101091
:104180001010101010FF10000000FF140000FF00BE
:10419000FF00001F10170000FC04F4141417101780
:1041A0001414F404F40000FF00F71414141414148D
:1041B00014F700F7141414171410101F101F141400
:1041C00014F4141010F010F000001F101F00000075
:1041D0001F14000000FC140000F010F01010FF107D
:1041E000FF08081408081010101F00000000F0104D
:1041F000FFFFFFFFFFF0F0F0F0F0FFFFFF00000017
:104200000000FFFF0F0F0F0F0F3844443844FC4AE3
:104210004A4A347E02020606027E027E0263554945
:1042200041633844443C04407E201E2006027E0246
:104230000299A5E7A5991C2A492A1C4C7201724CC7
:10424000304A4D4D303048784830BC625A463D3E89
:10425000494949007E0101017E2A2A2A2A2A44442A
:104260005F444440514A444040444A51400000FFAA
:104270000103E080FF000008086B6B08361236244B
:104280003600060906000000181800000010100093
:104290003040FF0101001F01011E00191D1712000F
:1042A0003C3C3C3C000000000000000000003E5B85
:1042B0004F5B3E3E6B4F6B3E1C3E7C3E1C183C7E73
:1042C0003C181C577D571C1C5E7F5E1C00183C1858
:1042D00000FFE7C3E7FF0018241800FFE7DBE7FF54
:1042E00030483A060E2629792926407F05050740E1
:1042F0007F05253F5A3CE73C5A7F3E1C1C08081CA2
:104300001C3E7F14227F22145F5F005F5F06097FDF
:10431000017F006689956A606060606094A2FFA278
:104320009404027F020410207F201008082A1C0831
:10433000081C2A08081E101010100C1E0C1E0C3031
:10434000383E3830060E3E0E060000000000000029
:104350005F00000007000700147F147F14242A6BFD
:104360002A122313086462364955225000000700C0
:1043700000001C2241000041221C0014083E0814C9
:1043800008083E0808000050300008080808080027
:104390000060600020100804023E5149453E44423E
:1043A0007F404042615149462141454B311814122A
:1043B0007F1027454545393C4A4949300101790577
:1043C000033649494936064949291E0000240000A0
:1043D0000040340000000814224114141414144145
:1043E0002214080002015109063E4149550E7E1172
:1043F00011117E7F494949363E414141227F414169
:10440000221C7F494949417F090909013E41515117
:10441000727F0808087F00417F41002040413F0132
:104420007F081422417F404040407F020C027F7F82
:104430000408107F3E4141413E7F090909063E4183
:1044400051215E7F09192946264949493201017FD8
:1044500001013F4040403F1F2040201F7F20182087
:104460007F631408146307087008076151494543C6
:10447000007F41410002040810200041417F0004F8
:1044800002010204808080808080030500002054A7
:104490005454787F48444438384444442038444491
:1044A000487F3854545458087E09090298A4A4A897
:1044B0007C7F0804047800447D40004080847D00B7
:1044C0007F20102844003F4040207C041804787C62
:1044D000080404783844444438FC28242418182458
:1044E0002428FC7C080404084854545424043F4401
:1044F00044203C4040207C1C2040201C3C4030405C
:104500003C44281028449CA0A0A07C4464544C4403
:1045100000083E414100007F000041413E0800028A
:10452000010302013C2623263C1EA1A161123A4050
:1045300040207A38545455592155557941225454C4
:104540007842215554784020545579400C1E5272BF
:10455000123955555559395454545939555454589C
:104560000000457C410002457D420001457C407DC4
:104570001211127DF0282528F07C54554500205456
:10458000547C547C0A097F4932494949323A4444AF
:10459000443A324A4848303A4141217A3A4240202E
:1045A00078009DA0A07D3D4242423D3D4040403DBF
:1045B0003C24FF2424487E4943662B2FFC2F2BFFED
:1045C0000929F620C0887E0903205454794100004F
:1045D000447D413048484A32384040227A007A0AC5
:1045E0000A727D0D19317D2629292F28262929298E
:1045F0002630484D402038080808080808080838C0
:104600002F10C8ACBA2F102834FA00007B00000825
:10461000142A142222142A14085500550055AA55AC
:10462000AA55AAFF55FF55FF000000FF001010100B
:10463000FF00141414FF001010FF00FF1010F01002
:10464000F0141414FC001414F700FF0000FF00FF26
:104650001414F404FC141417101F10101F101F144E
:1046600014141F00101010F0000000001F10101094
:10467000101F10101010F010000000FF101010108C
:104680001010101010FF10000000FF140000FF00B9
:10469000FF00001F10170000FC04F414141710177B
:1046A0001414F404F40000FF00F714141414141488
:1046B00014F700F7141414171410101F101F1414FB
:1046C00014F4141010F010F000001F101F00000070
:1046D0001F14000000FC140000F010F01010FF1078
:1046E000FF08081408081010101F00000000F01048
:1046F000FFFFFFFFFFF0F0F0F0F0FFFFFF00000012
:104700000000FFFF0F0F0F0F0F3844443844FC4ADE
:104710004A4A347E02020606027E027E0263554940
:1047200041633844443C04407E201E2006027E0241
:104730000299A5E7A5991C2A492A1C4C7201724CC2
:10474000304A4D4D303048784830BC625A463D3E84
:10475000494949007E0101017E2A2A2A2A2A444425
:104760005F444440514A444040444A51400000FFA5
:104770000103E080FF000008086B6B083612362446
:10478000360006090600000018180000001010008E
:104790003040FF0101001F01011E00191D1712000A
:1047A0003C3C3C3C00000000005368757474696E2A
:1047B0006720646F776E003A200066616C73650055
:1047C00074727565004578706F32004578706F318E
:1047D00000526174653200526174653100FA0091D3
:1047E0000E10004B006E02200010032000A40320D6
:1047F0000097041000A000000008000B02100093B6
:10480000021000780000000800D20104005A0000E5
:104810000008000B022000880120000B022000FA93
:10482000004B021000D20000001000B8071000007A
:10483000001000B80708002201170404000000203F
:1048400000A403040000002000100304007800000E
:1048500000100093020800506C6561736520776159
:104860006974000A42617474657279206C6F770014
:10487000BC3B903BBC3B903BBC3B643B643B4D6FC3
:1048800064656C0030003A0030003A002D0056009C
:1048900030002E002D0073002E002030F8FCF83080
:1048A00020746F3A004D6F76652000436F70792059
:1048B000004E6F20646174610030002E002D0043B3
:1048C000616E277420626520656D70747900496E91
:1048D000636F72726563742070617373776F726453
:1048E00000456E7465722070617373776F72640037
:1048F00043616E2774206C6F616420686572650087
:104900005B4F4B5D20746F20736B6970004368656B
:10491000636B2073776974636865733A00070043BB
:104920006865636B207468726F74746C653A000715
:10493000005741524E494E470004000A001100152D
:104940000024802480404044408020FFE000940008
:1049500011241FBECFEFD1E2DEBFCDBF00E00CBF00
:1049600013E0A0E0B2E0EAE9F3EC02E00BBF02C022
:1049700007900D92A632B107D9F72EE1A6E2B3E077
:1049800001C01D92AF33B207E1F714E2C8EAD4E2E6
:1049900000E006C021970109802FFE010F941C61E1
:1049A000C73AD10780E00807A9F70F94153A0D948C
:1049B000CB610C9400002F923F924F925F926F92C6
:1049C0007F928F929F92AF92BF92CF92DF92EF929F
:1049D000FF920F931F93CF93DF93CDB7DEB7C85AE3
:1049E000D1090FB6F894DEBF0FBECDBF8091CC07C2
:1049F000811104C080910D15811129C225EFE22E8D
:104A00002CE1F22E03E614E0C057DF4F1983088330
:104A1000C059D04039EEA32E3CE1B32E4DEDC42E4B
:104A20004CE1D42E5AED852E5CE1952E66E6262EBD
:104A300064E0362E0DE918E0CE56DF4F1882C259D9
:104A4000D040D80155968C91882309F4ADC1F1016D
:104A500010820F9400058111ACC1F7018081918112
:104A6000A281B381F50180839183A283B3830E94E5
:104A7000EEECD6016D937D938D939C931397F40187
:104A80001082D80156968C918111BAC1F8012789FC
:104A9000222349F130E0A0E6BAEE0F94685FD70117
:104AA0002D913D914D915C91621773078407950795
:104AB00070F42B013C01B4EF4B0EB1E05B1E611CA6
:104AC000711C241535054605570508F4ABC126179A
:104AD00037074807590738F4C057DF4FA881B98115
:104AE000C059D0401C92F801808D882309F495C1EB
:104AF000F70180819181A281B381F801818F928F2A
:104B0000A38FB48FCE56DF4FB881C259D040BF5F5C
:104B1000CE56DF4FB883C259D040015F1F4FE4E04B
:104B2000EE0EF11CC057DF4F28813981C059D040AB
:104B30002F5F3F4FC057DF4F39832883C059D04084
:104B400034E0A30EB11C44E0C40ED11C5FEF851A03
:104B5000950A6FEF261A360AB33009F072CF0F9418
:104B60005A2E0F943F0FF0906B1DF11003C18091EE
:104B7000FA148111ECC110923F0281E08093F71585
:104B800090910C1D9D3508F47DC190930B1D1092E2
:104B90000C1D809343021092491D80934102809323
:104BA00042028FEF809340020F94350F80914402B0
:104BB000882309F4F1C2809118158111E5C1809113
:104BC0001A158111DEC10E94F3DF0E9433E1E1E09A
:104BD000CE2EEDE1DE2EF5EFAF2EF7E0BF2E0FE487
:104BE00011E1A9E06A2EA8E07A2E7601B4E62B2E18
:104BF000312C412C512C8824839419C022E092122C
:104C00000EC0F80147815085052E000C660B770B0E
:104C100084179507A607B70714F4D7018C92BFEF46
:104C2000EB1AFB0A045E1F4F6A147B04E9F1D701FB
:104C30001C92F501219131915F012F3FFFE73F0762
:104C400071F3D80116969C901697992041F30D9018
:104C5000BC91A02D0F942461A20191010F94145FC7
:104C6000F80183819481092E000CAA0BBB0B820FE3
:104C7000931FA41FB51FF1E09F12C0CFF801478119
:104C80005085052E000C660B770B481759076A07ED
:104C90007B072CF6D7019C92BFEFEB1AFB0A045E50
:104CA0001F4F6A147B0419F626E733E0ECE6F3E0C5
:104CB0004BE05DE191E0B9010BC080818111D5C06D
:104CC000DB011C926F5F7F4F31964C155D05B1F093
:104CD000D6018D916D01813081F7DB018C918111BD
:104CE000F1CF80818F5F8083873960F3DB019C93F4
:104CF0006F5F7F4F31964C155D0551F740E853E0EB
:104D000005C04E175F0711F40C942655F9018191E7
:104D10009F018823B1F380916B03882309F420C19C
:104D20006091211570912215809123159091241581
:104D300021E020936B030091670310916803209199
:104D4000690330916A03601B710B820B930B2AEF8E
:104D500030E040E050E00F94465F672B682B692BF2
:104D600039F480915E04811103C085E08093A91419
:104D70000E942CFAC855DF4F0FB6F894DEBF0FBE65
:104D8000CDBFDF91CF911F910F91FF90EF90DF90FA
:104D9000CF90BF90AF909F908F907F906F905F90DB
:104DA0004F903F902F900895D1018C91882309F462
:104DB00054CED5014D905D906D907C900E94EEECAC
:104DC000AB01BC01D6018D919D910D90BC91A02DA0
:104DD000481A590A6A0A7B0AD301C201840F951F37
:104DE000A61FB71FF70180839183A283B383E1E0FD
:104DF000D401EC93D80156968C91882309F446CEC1
:104E00000F940005882309F441CECE56DF4F8881E8
:104E1000C259D0400F94543939CE118E128E138E50
:104E2000148E70CEC057DF4FA881B981C059D040D1
:104E3000EC91E1114CCEB3E0B093A91421E0C0573E
:104E4000DF4FE881F981C059D04020834CCE80915A
:104E50000915882309F4D2CD8091CB078150833086
:104E600008F0CCCD0F94350FC9CD815080838823B5
:104E700009F426CF873908F425CFDB018C91811105
:104E800021CF34CFE92FF0E08827E65BF84D8F4F34
:104E90000D941C61BF4ACB3F26538740E241704FBF
:104EA000704FD2535F549854C83A703BFB3B4A3C16
:104EB000A13CD853E34C085446338B33F733FD52AF
:104EC000BD47E6479F29E227CB291D2EDE2DDE2D8B
:104ED000CF2E122D392D392D9C2D8C347E2A7F3DDD
:104EE000883AAD3D833218330B3D403FCA2A552BDB
:104EF000612CB32C7730E63124345234EB2C6E3AEB
:104F00006338E7387C37B6374339E63964368F4C37
:104F10007E361F3745425A511A50BD505E32A54663
:104F2000E945234646433F442C45E345453D494E2C
:104F3000044D804DCE46E0468851B151B151FD2E11
:104F40008D2FE82F16528142F742AF4F634A65E03A
:104F50008CEF94E10F94CF16882309F40ECE0BCE7C
:104F6000609121157091221580912315909124153F
:104F700060936703709368038093690390936A0357
:104F8000D7CE1092F7151FCEE12C09E02DE047E3B4
:104F900062E786EE95E10E949AF883E78093EE152A
:104FA00088E38093EF1540917412509175126091CF
:104FB0007612709177122AE030E086EE95E10E9439
:104FC000EAE6FDCD8091491D811103C085E00F9473
:104FD0003A2B2091430280911D02281718F4209348
:104FE0001D02822F30E0482F50E04D5F5F4F8F5FF2
:104FF0004217530714F00CC0892F91E0980F482FE7
:1050000050E04D5F5F4F42175307B4F380931D028A
:105010008091ED1590E06C0104E2C01AD108D7FE32
:1050200004C06C0113E2C11AD108D594C794BB2403
:10503000B394BC0C68E28EEF8C0D0E94C0E31B2D74
:10504000F12CA9E16A2EB3E27B2E0DE0A02E909008
:105050001D029F0C80914302891511F40C943B6052
:105060009A94492C512CE091ED036E9EF00111248D
:10507000E25AF64F808190E0092C02C09595879501
:105080000A94E2F74DEA52E380FD02C046EA52E399
:10509000EE24E39407E027E0612F89E10E9467E2B4
:1050A0007092EE151093EF1564EB71E386EE95E1C7
:1050B0000E9410E7B2016F5F7F4F86EE95E10E947C
:1050C000BAE362EB71E386EE95E10E9410E79A9CE9
:1050D000B00111246653704F86EE95E10E94FBE605
:1050E000F394175F24E0F212B2CF80911215811170
:1050F0000C94C760BC2C84E290E020911D0230E04B
:105100007C0104E010E045E050E06B2D80E70F9457
:105110005C2880914A1D813011F40C9434C980912F
:10512000491D882339F080911B158250823010F47C
:105130000C940FBB80911C15813009F037CDE091A4
:10514000ED0359E1E59FF0011124E25AF64F9081F9
:105150009F7111F00C9430C70F94350F8EE991E3D5
:105160009093481D8093471D0E94EEEC6093431D71
:105170007093441D8093451D9093461D6053784F56
:105180008F4F9F4F60933F1D7093401D8093411D33
:105190009093421D109244020E94EEECAB01BC01C0
:1051A0000091431D1091441D2091451D3091461DD5
:1051B00080913F1D9091401DA091411DB091421DD5
:1051C000805E9C4FAF4FBF4F401751076207730778
:1051D00008F4ABC0481759076A077B0708F0A5C059
:1051E000E0911315EE2311F40C9435556801790103
:1051F000E0E9CE0EE1E0DE1EE11CF11C4C155D0580
:105200006E057F0510F00C94C855401B510B620BC6
:10521000730BDB01CA01880F991FAA1FBB1F880FE0
:10522000991FAA1FBB1F880F991FAA1FBB1F880F9A
:10523000991FAA1FBB1F5C016D01A41AB50AC60AFB
:10524000D70AC601B50120E931E040E050E00F94F3
:10525000465FE22FF0E0E75AF04EE4918FE3F82E3C
:10526000FE1A8091471D9091481D0F948D5E982FD6
:10527000990F890F182F110F8091EC15811B990B35
:1052800097FD019695958795D82E25E0821710F405
:1052900005E0D02E8091121581110C942A5549E019
:1052A000410F8BEF8D0D00E0E12C2BE06F2D0E9464
:1052B000CCE180911215811105C0CE56DF4F1882C6
:1052C000C259D04047E0410FCE56DF4FA880C259A7
:1052D000D0408A2D90E0880F991F4817190649F091
:1052E00044F00A2D29E061E06F0D8CEF8D0D0E94D6
:1052F0002DE21092F015D092EE15F394F394F09203
:10530000EF156091471D7091481D40E250E08BE41D
:105310009DE10F94795E6BE47DE186EE95E10E945C
:10532000FBE681E08093F01546CC84179507A6072D
:10533000B70708F040CC81E0809344023CCC8CE776
:1053400095E30F94ED351091ED03E12EF12C09E179
:10535000109FF0011124EA5AF64F20813091A608DF
:1053600080E091E0812C12C08A3011F40C949055A9
:10537000E1E0F0E0EC0FFD1FE80DF11D8083839468
:105380009F3011F40C94C9599F5F8F5F233061F7F0
:10539000843070F3F5CF81E991E390931F1D8093E2
:1053A0001E1D10920E1D85E891E39093211D8093A0
:1053B000201D81E080930F1D89E791E39093231DC9
:1053C0008093221D82E08093101D8DE691E39093DF
:1053D000251D8093241D83E08093111D82E691E3B7
:1053E0009093271D8093261D84E08093121D88E5ED
:1053F00091E39093291D8093281D85E08093131DD0
:1054000088E491E390932B1D80932A1D86E080937E
:10541000141D8AE391E390932D1D80932C1D87E04A
:105420008093151D8CE291E390932F1D80932E1D88
:1054300089E08093161D80933E1D8091A6088230DE
:1054400010F40C944A6F0F944C2B109140021111E0
:1054500017C080910C1D80930B1D8BE180930C1D58
:1054600081E0809343021092491D80934102809312
:1054700042028FEF809340020F94350F109140024B
:10548000113011F40C9400C8123011F40C94E3C7DD
:10549000133011F40C94E06F143011F40C941CC808
:1054A000153011F40C94C4C7163011F40C94ABC72A
:1054B000173011F40C949E6F183011F40C948BC7B4
:1054C000193011F40C94729480911C15813009F0FC
:1054D0006DCB90910C1D90930B1D98E190930C1D3A
:1054E000809343021092491D8093410280934202AF
:1054F0008FEF809340020F94350F58CB8DEC9FE2D5
:1055000090931F1D80931E1D10920E1D8EEB9FE227
:105510009093211D8093201D81E080930F1D82E0D8
:1055200080933E1D0F944C2B10914002113011F4CA
:105530000C94B4AD111114C080910C1D80930B1DFF
:1055400081E080930C1D809343021092491D80934B
:105550004102809342028FEF809340020F94350FF7
:1055600080911C15813009F021CB90910C1D9093F6
:105570000B1D93E290930C1D809343021092491DE2
:1055800080934102809342028FEF809340020F94F8
:10559000350F0CCB1091E703E12EF12C8091DD0348
:1055A00081111BC081E08093DD038091E603882395
:1055B00011F40C94A06198E29E9DF0019F9DF00D66
:1055C0001124E45CF24F20812150330B8217130623
:1055D00014F00C94A0618093170263E28EE00E94A5
:1055E000C0E301E10093EE1582E18093EF1563E3E0
:1055F0007EE286EE95E10E9410E70093EE150CE145
:105600000093EF156BE27EE286EE95E10E9410E7D3
:1056100087E48093EE150093EF15609117026F59A0
:1056200086EE95E10E941FF86CE18FE30F946D36D2
:1056300081E08093491D48E2D42EDE9CF001DF9C7E
:10564000F00D1124E45CF24F40814250550B8091E3
:10565000170202E021E061E070E090E00F94702911
:10566000982F8093170220914A1D213011F40C9439
:10567000666F80911C15813009F098CA1092DD0385
:1056800090910C1D90930B1D97E290930C1D8093AD
:1056900043021092491D80934102809342028FEF92
:1056A000809340020F94350F81CA1092F71589E359
:1056B0009FE20F94ED359090DC03C92CD12C56015C
:1056C000AA0CBB1CAA0CBB1CAA0CBB1CF501EC0D44
:1056D000FD1DEA53F14F80818351833010F40C9407
:1056E000406F8091491D882311F40C942FC980913B
:1056F0004302873011F40C943C6F863011F40C9403
:105700002E6F80914A1D813011F40C94F3C988E00A
:105710008093EE1589E08093EF156091DC03635E62
:1057200040E28BE49DE10F94FE146BE47DE186EE94
:1057300095E10E94FBE62091EE15295001E041E140
:1057400068E086EE95E10E9423F91092EE1514E1CF
:105750001093EF1563E27EE286EE95E10E9410E77A
:1057600086E38093EE151093EF1585010C0D1D1D3A
:105770000A53114FF8016081FAE06F9FB0011124C4
:10578000695B724D40E250E08BE49DE10F94795EDD
:105790006BE47DE186EE95E10E94FBE61092EE154A
:1057A0008DE18093EF15D8018C91853111F40C9423
:1057B000EBC9833111F40C94E3C9843111F40C94D6
:1057C000DBC96CE27DE286EE95E10E9410E786E39C
:1057D0008093EE158DE18093EF15C5018C0D9D1D15
:1057E0008356974FFC01E75DF94F2081222311F486
:1057F0000C94266F253110F00C9412C9203110F052
:105800000C9497C9213078F0865D994F40E2FC01F5
:1058100060818BE49DE10F94FE146BE47DE186EEE4
:1058200095E10E94FBE61092EE1586E28093EF155B
:10583000F501EC0DFD1DEA53F14F8081853111F426
:105840000C9427C9833111F40C941FC9843111F4CD
:105850000C94A2C86CE07DE286EE95E10E9410E710
:1058600086E38093EE1586E28093EF15F501EC0D4B
:10587000FD1DEA53F14FE081EE2311F40C945E6FAD
:10588000E150E53110F00C943B5FF0E08827E45BD9
:10589000F34D8F4F0D941C61CDC8CDC8CDC8CDC878
:1058A000CDC8CDC8CDC8CDC8CDC8CDC8B8C8B8C87A
:1058B000B8C8B8C8B8C838C938C938C938C9235FE2
:1058C000AAC88EEA9CE290931F1D80931E1D109221
:1058D0000E1D8FE99CE29093211D8093201D01E015
:1058E00000930F1D82E080933E1D0F944C2B10916E
:1058F000400211111AC08091DC038093DB03809178
:105900000C1D80930B1D8FE280930C1D00934302AE
:105910001092491D00934102009342028FEF809341
:1059200040020F94350F10914002113011F40C9485
:10593000A8C980911C15813009F038C990910C1DBF
:1059400090930B1D9DE290930C1D80934302109247
:10595000491D80934102809342028FEF8093400261
:105960000F94350F23C981E08093491D8091DB039B
:1059700002E021E043E150E070E060E090E00F944D
:1059800070298093DB0321E0482F6091DC038DE9CF
:105990009CE20F94B73680914A1D813011F40C942B
:1059A00001CA80911C15813009F000C990910C1D2D
:1059B00090930B1D9DE290930C1D809343021092D7
:1059C000491D80934102809342028FEF80934002F1
:1059D0000F94350FEBC884EA9AE20F945738809100
:1059E0004A1D823011F40C942D73833029F080917C
:1059F0001C15813009F0DAC880910C1D80930B1DB5
:105A000080E380930C1D81E0809343021092491D36
:105A100080934102809342028FEF809340020F9463
:105A2000350FC4C887E790E30F94573880914A1D1B
:105A3000823011F40C94E9CF833029F080911C1549
:105A4000813009F0B3C880910C1D80930B1D88E153
:105A500080930C1D81E0809343021092491D809336
:105A60004102809342028FEF809340020F94350FE2
:105A70009DC8903211F40C94DC7210914002111107
:105A80000C94C6C20091ED03053210F00C9461C76E
:105A9000602F70E09B012C5F3F4F083288F549E191
:105AA000469FC001479F900D11248356974FFC01DC
:105AB000E854FF4F508151110C94BCC285549F4F44
:105AC000DC018C9181110C94BCC2E1E0E00F8E2FBF
:105AD00090E0E49FF0011124EB5AF64F0EC088329B
